:100000000C9456010C9475010C9475010C947501B7
:100010000C9475010C9475010C9475010C944707B0
:100020000C9475010C9475010C9475010C94750178
:100030000C9475010C9475010C9475010C94750168
:100040000C9475010C94A4060C9475010C94750124
:100050000C9475010C9475010C9475010C94750148
:100060000C9475010C9475010C9475010C94750138
:100070000C9475010C9475010C9475010C94750128
:100080000C9483070C9475010C9475010C94750104
:100090000C9475010C9475011F0000000000000015
:1000A0001F001F00000000001F001F001F000000B5
:1000B0001F001F001F001F001F001F001F00000067
:1000C0001F001F00000000001F00000000000000D3
:1000D000000000000000005F0000000300030014A7
:1000E0003E143E14242A7F2A12433308666136499F
:1000F0005522500005030000001C2241000041224F
:100100001C0014083E081408083E0808005030007F
:1001100000080808080800606000002010080402B9
:100120003E5149453E0004027F004261514946224A
:10013000414949361814127F1027454545393E4933
:100140004949320101710907364949493626494969
:10015000493E0036360000005636000008142241A1
:100160000014141414140041221408020151090649
:100170003E4159555E7E0909097E7F494949363E0F
:10018000414141227F4141413E7F494949417F09E7
:100190000909013E4141493A7F0808087F00417F33
:1001A0004100304040403F7F081422417F404040A2
:1001B000407F020C027F7F0204087F3E4141413EA6
:1001C0007F090909061E2121215E7F09090976267A
:1001D0004949493201017F01013F4040403F1F2012
:1001E00040201F7F2010207F41221C2241070870E1
:1001F00008076151494543007F410000020408108F
:10020000200000417F0004020102044040404040C1
:10021000000102040020545454787F444444383888
:1002200044444444384444447F38545454180404E7
:100230007E0505085454543C7F0804047800447D2E
:1002400040002040443D007F1028440000417F4092
:10025000007C047804787C080404783844444438EA
:100260007C14141408081414147C007C080404483A
:100270005454542004043F44443C4040207C1C20FF
:1002800040201C3C4030403C44281028440C505036
:10029000503C4464544C44000836414100007F0007
:1002A00000414136080002010204020011241FBE71
:1002B000CFEFD0E2DEBFCDBF12E0A0E0B1E0E4E3DB
:1002C000FEE200E00BBF02C007900D92A83BB10711
:1002D000D9F713E0A8EBB2E001C01D92AC31B10731
:1002E000E1F70E94E2040C9418170C94000080912E
:1002F0007C008B6480937C0080917A008660809380
:100300007A0080917A00806C80937A0020EA3FE046
:1003100003C0C9010197F1F780917A0084FFF9CFFA
:100320002091780030E04091790080917A008F77B9
:1003300080937A00942F80E0282B392B81EE9CEA61
:1003400028273927C90108958091F8029091F90270
:100350009C01369527953093F9022093F80280FF8F
:1003600008C080E094EB282739273093F9022093C6
:10037000F8028091F8029091F9020895982FE8ED23
:10038000F2E020E405C08081891709F420833196CA
:1003900082E0E33EF807B9F70895E8EDF2E090E473
:1003A00005C080818F3509F49083319682E0E33E69
:1003B000F807B9F70895E8EDF2E005C081918034BF
:1003C00011F080E0089582E0E33EF807B9F781E09C
:1003D0000895EDEBF2E001C0119282E0E83DF807EC
:1003E000D9F70895CF92DF92EF92FF920F931F9368
:1003F00080E091E068EC70E048E750E00E948313F1
:100400000EE011E0C8016EE071E04BE250E00E94A6
:100410008313C8016EE071E042E350E00E94831351
:10042000C8016EE071E049E350E00E948313C80107
:100430006EE071E040E450E00E948313C8016EE07A
:1004400071E047E450E00E948313C8016EE071E060
:100450004EE450E00E948313C8016EE071E045E570
:1004600050E00E948313C8016EE071E04CE550E05B
:100470000E948313C8016EE071E043E650E00E94E1
:100480008313C8016EE071E04AE650E00E948313D6
:10049000C8016EE071E041E750E00E948313C8019B
:1004A0006EE071E048E750E00E94831380E191E044
:1004B00067ED70E04BE250E00E9483133BE1C32EF6
:1004C00031E0D32EC6016AE071E042E350E00E94C1
:1004D0008313C80167ED70E042E350E00E9483138C
:1004E0002DE1E22E21E0F22EC70166ED70E044E33B
:1004F00050E00E9483138FE191E063ED70E04BE3E5
:1005000050E00E948313C70166ED70E04BE350E0BA
:100510000E948313C80167ED70E042E350E00E943F
:100520008313C80167ED70E042E450E00E9483133A
:10053000C80167ED70E049E450E00E948313C801F0
:1005400067ED70E04EE450E00E94831302E211E098
:10055000C80163ED70E047E450E00E948313C601D8
:100560006AED70E047E450E00E948313C80164ED37
:1005700070E044E550E00E948313C60169ED70E02D
:1005800044E550E00E9483131F910F91FF90EF907C
:10059000DF90CF9008958091EB02863009F49EC0E1
:1005A000873090F4833009F486C0843030F4813091
:1005B000F1F0823009F0DFC01FC0843009F482C03E
:1005C000853009F0D8C083C0893009F4BCC08A30B6
:1005D00038F4873009F49BC0883009F0CCC0AEC035
:1005E0008A3009F4B7C08B3009F0C5C0BCC080E0C8
:1005F00091E068EC70E05CC08EE091E06EE071E04C
:1006000047E150E00E9483138EE091E06EE071E0DC
:100610004EE150E00E9483138EE091E06EE071E0C5
:1006200045E250E00E9483138EE091E06EE071E0BD
:100630004CE250E00E9483138EE091E06EE071E0A6
:1006400043E350E00E9483138EE091E06EE071E09E
:100650004AE350E00E9483138EE091E06EE071E087
:1006600041E450E00E9483138EE091E06EE071E07F
:1006700048E450E00E9483138EE091E06EE071E068
:100680004FE450E00E9483138EE091E06EE071E051
:1006900046E550E00E9483138EE091E06EE071E049
:1006A0004DE550E00E9483138EE091E06EE071E032
:1006B00044E650E055C080E191E067ED70E047E12D
:1006C00050E04EC08BE191E06AE071E004C08EE042
:1006D00091E067ED70E04EE150E042C08DE191E0C5
:1006E00066ED70E040E250E00E9483138FE191E0FC
:1006F00063ED70E047E250E00E9483138DE191E0EA
:1007000066ED70E047E250E00E948313E0CF8EE098
:1007100091E067ED70E04EE250E00E9483138EE0BE
:1007200091E067ED70E045E350E00E9483138EE0B6
:1007300091E067ED70E04AE350E012C082E291E0A0
:1007400063ED70E004C08BE191E06AED70E043E39B
:1007500050E006C082E291E064ED70E040E450E0D9
:100760000E94831308958BE191E069ED70E040E40D
:1007700050E00E9483130895CF92DF92EF92FF9290
:100780000F931F93DF93CF930F92CDB7DEB700E0A7
:1007900010E04EE1E42EF12C6E010894C11CD11C36
:1007A000F801E852FD4F8081803469F4F801E4518A
:1007B000FD4F808189838F3531F0C601B70142E357
:1007C00050E00E9483130F5F1F4F8AE090E0E80E15
:1007D000F91E0B30110521F70F90CF91DF911F917A
:1007E0000F91FF90EF90DF90CF9008950F931F939C
:1007F000CF93DF93CCEED2E06EE170E013C088813E
:10080000882379F08B01065F1F4F8F3519F484E23E
:1008100091E002C08DE191E045E350E00E94831336
:10082000B801219682E0C73FD80749F7DF91CF9101
:100830001F910F910895FC0101900020E9F7319775
:10084000E81BF90BE80FF91F6083118208950F93DD
:100850001F938C018CEE92E0B8014AE050E00E94B8
:10086000091788ED92E0B8014AE050E00E940917AC
:100870001F910F9108950E94A40164E670E00E9408
:10088000CC166AE570E00E94CC166AE070E00E9427
:10089000CC162AE06202C00111248A5E9D4F0E949C
:1008A00027040895FF920F931F93DF93CF93CDB743
:1008B000DEB76B970FB6F894DEBF0FBECDBFF82E34
:1008C0008E010F5F1F4FC8010E940217F8019E01A1
:1008D000245E3F4F05C081918F1511F481E004C063
:1008E000E217F307C1F780E06B960FB6F894DEBF0E
:1008F0000FBECDBFCF91DF911F910F91FF90089553
:10090000DF93CF930F92CDB7DEB789836DEB72E0A3
:100910000E9452048823D1F48091F7028823B1F415
:100920006091E402CE01019670E043E750E00E943E
:1009300083138091E402865F8093E4028DEB92E062
:1009400069810E941B0481E08093F7020F90CF9190
:10095000DF910895E1E6F0E080E880831082279A35
:100960000E94B6110E94AD070E945D088FE10E94AF
:10097000620DEE9A10928000E1E8F0E098E090833A
:10098000808182608083EFE6F0E0808182608083F6
:1009900010929000E1E9F0E0908380818260808392
:1009A000E1E7F0E080818260808380ED97E09093C2
:1009B0009900809398000E9477019093F9028093A8
:1009C000F8020895DF92EF92FF920F931F93CF9357
:1009D000DF930E94AA04EE24EA9460E4D62EC8ECC9
:1009E000D0E011E01092E602E092E50280E398E1A7
:1009F00090938900809388002F9878940E945D08D6
:100A00008091E6028130E1F799C08091E302813064
:100A100011F40E943B041092BC021092E8020E9462
:100A2000F6030E94CD011092E702EDEBF2E001C067
:100A3000119282E0E83DF807D9F70E945D08109214
:100A4000F7020093E4021092EB028091E70268ED56
:100A500072E00E945204882309F19091E702E8EDC8
:100A6000F2E005C08081891709F4D082319682E0D6
:100A7000E33EF807B9F7892F0E94BC038DEB92E0A3
:100A80006091E7020E941B041092E70280EA9FE057
:100A9000FE013197F1F70197D9F715C08091E70270
:100AA0006DEB72E00E945204882369F48091E702A2
:100AB0000E9480048091EB028F5F8093EB020E9482
:100AC000CB021092E702E8EDF2E003C0819180349E
:100AD00061F482E0E33EF807C9F73AC0FE013197BE
:100AE000F1F70197D9F71093E8028091EB028B3070
:100AF00099F486E291E06EE170E040E550E00E94FA
:100B0000831388E99AE3FE013197F1F70197D9F74A
:100B10001092E9021093E8028091E802882329F4F8
:100B20008091E602882309F090CF1092E902F092BA
:100B3000E6028091E6028823E1F703C00EE153E06C
:100B4000F52E8091E602813009F45FCFF8944ACF08
:100B50001093BC0289E391E06EE170E040E550E063
:100B60000E94831380E197E2B9CF8091E902882344
:100B700099F50E9477118091BC02813051F48DE487
:100B800091E06EE170E042E350E00E9483132F9AFF
:100B900008C086E591E06EE170E042E350E00E941B
:100BA000831380E691E06EE170E04BE350E00E9439
:100BB00083138CEE92E062E370E040E550E00E9427
:100BC00083138DE691E06EE170E044E650E00E9410
:100BD000831381E08093E902089580E80E94390838
:100BE000882359F00E9477118FEF8093E5021092CD
:100BF000EA020E9458081092E60208950E945A0BD9
:100C00008091E902882399F484E991E06FE570E02E
:100C100044E150E00E9483138BEA91E06EE170E0C2
:100C200042E350E00E94831381E08093E90208953B
:100C30000E94360C882379F080E093E00E9427041C
:100C40000E9486080E9477111092E9021092E30236
:100C500081E08093E6028091E902882321F40E94DA
:100C60005D081092E90208950E94970B813039F4D3
:100C7000809100038093E7020E94760808958230F5
:100C800021F40E9477111092E60208950E94BA0999
:100C90001092F7028091E902882399F481EB91E0A8
:100CA0006FE570E044E150E00E94831380EC91E036
:100CB0006EE170E049E650E00E94831381E080938A
:100CC000E9020895809170028A30C9F40E94D70722
:100CD000982F87FF08C08091EA02882321F0809135
:100CE000EA02815008C0191644F48091EA0290E0AB
:100CF0000196817090708093EA0210927002809148
:100D000070028F5F8093700280E80E943908882308
:100D1000D1F00E9458088091EA02882319F08130AE
:100D200091F40AC00E9477111092E90281E0809349
:100D3000E3028093E60208950E9477111092E9027F
:100D400082E08093E60208951F920F920FB60F92F1
:100D50000BB60F9211242F933F934F935F936F9392
:100D60007F938F939F93AF93BF93EF93FF93809164
:100D7000E602813051F0813028F0823049F0833032
:100D800061F409C00E94620608C00E94340605C0D2
:100D90000E94FE0502C00E94ED05FF91EF91BF91F8
:100DA000AF919F918F917F916F915F914F913F9103
:100DB0002F910F900BBE0F900FBE0F901F901895A4
:100DC0000F931F932091E5028091EA02332727FDBC
:100DD000309590E02817390709F456C00E94771122
:100DE00083ED91E06AE070E04AE050E00E948313F6
:100DF00088ED91E065E570E044E150E00E948313E6
:100E00000E94F2018FEE91E065E570E048EC50E061
:100E10000E9483138091EA02882319F02FEF3FEF9D
:100E200002C02FE130E081E092E065E570E04AE544
:100E300050E00E945E138091EA02813019F02FEF9A
:100E40003FEF02C02FE130E08DE092E065E570E019
:100E500043E750E00E945E138091EA02882321F06C
:100E6000813091F463E701C06AE58FE490E070E0BF
:100E700043E050E023E030E008E910E00E949B0DE1
:100E80008091EA028093E5021F910F9108951F92CD
:100E90000F920FB60F920BB60F9211242F933F9320
:100EA0004F935F936F937F938F939F93AF93BF9372
:100EB000EF93FF938091E602813051F0813028F06A
:100EC000823049F0833061F409C00E94E00608C016
:100ED0000E94460605C00E94180602C00E94B50581
:100EE000FF91EF91BF91AF919F918F917F916F9102
:100EF0005F914F913F912F910F900BBE0F900FBEBE
:100F00000F901F9018951F920F920FB60F920BB66D
:100F10000F9211242F933F934F935F936F937F937F
:100F20008F939F93AF93BF93EF93FF930E94E0073C
:100F30000E94BE07FF91EF91BF91AF919F918F915A
:100F40007F916F915F914F913F912F910F900BBEC9
:100F50000F900FBE0F901F9018958DB18F7C8DB99B
:100F60008EB180638EB96F98779A87B1837C87B989
:100F700088B18C6388B926982E9A08958CB185FD26
:100F800002C020E001C023E084FF02C081E02827E6
:100F90009091BB02921B90FF09C02093BB028091ED
:100FA000FD0281509270890F8093FD020895809117
:100FB000FD029091FD0291709093FD028595089538
:100FC0003091FC0286B12CB193B12F67806C28233D
:100FD0009F6B2923209523278091BA028223809535
:100FE0008093BA029091B902922398279093B90204
:100FF000822389239091FC0298279093FC022091F0
:10100000FA029091FC028923822B8093FA0280914C
:10101000FC028C7F19F48CE38093B8028091B802B3
:1010200081508093B802882359F48AE08093B802F3
:101030009091FB028091FC028C7F892B8093FB02B4
:1010400008959091FA0298238091FA02892780935B
:10105000FA02892F08959091FB0298238091FB0258
:1010600089278093FB02892F08959091FC028923A0
:1010700008959091FC022091FA0290959823922372
:101080008091FA0289278093FA02892F089590911E
:10109000FB0298238091FB0289278093FB028091B9
:1010A000FA0289239091FA0298279093FA02089500
:1010B0001092FA021092FB0208958FEF8093FF02C4
:1010C00081E792E090930C0380930B031092FE0251
:1010D0008091FE0280930E0310920D03E0E0F3E096
:1010E000119283E0EB30F807D9F7089580910E0351
:1010F000882359F080910E03815080930E03E09174
:101100000E03F0E0E050FD4F108208950BC0809177
:101110000E03815080930E03E0910E03F0E0E05047
:10112000FD4F108280910E03882389F70895AF92B6
:10113000BF92CF92DF92EF92FF920F931F93CF93C4
:10114000DF93EC017B01B42E69016E5F7F4F029645
:101150004CE150E02CE130E086010E94881026E04E
:10116000B21601F58DE090E0E80EF91E239681E5B8
:10117000BE01A7012FEF3FEF0E941E13269685E7C1
:10118000BE01A7012FEF3FEF0E941E13269689E6AE
:10119000BE01A7012FEF3FEF0E941E13259684E7A3
:1011A000BE013CC097E0B916E9F580910B03909120
:1011B0000C032DE030E0E20EF31E9E01285F622F4B
:1011C0003EE0B32EBC0E24E1A22EAC0E8F5892400E
:1011D00091F481E470E0A7012FEF3FEF86010E94B8
:1011E0001E1382E46B2D70E0A7012FEF3FEF0E94EA
:1011F0001E1383E411C081E670E0A7012FEF3FEFDB
:1012000086010E941E1382E66B2D70E0A7012FEF6E
:101210003FEF0E941E1383E66A2D70E0A7012FEFB7
:101220003FEF0BC060968DE090E0E80EF91E8B2D2D
:10123000BE01A7012FEF3FEF86010E941E13DF9131
:10124000CF911F910F91FF90EF90DF90CF90BF90C3
:10125000AF900895DF92EF92FF920F931F93CF9379
:10126000DF93D82E562F6E3198F100911103109113
:10127000120304561040EE2427C06E968F2D90E086
:10128000E0910B03F0910C03FD1441F4E80FF91FFA
:101290004081CE01B80121E935ED07C0E80FF91F03
:1012A0004081CE01B8012DE43BE60E949708F394FB
:1012B00081E0C831D80709F78AE0E80E8EE1E81628
:1012C00009F450C0025E1F4FFE2CCAE0D0E0D6CF1A
:1012D000681709F447C0E0910B03F0910C03E60F87
:1012E000F11D4081862F6AE00E94C0161EE1919F89
:1012F000F001112420911103309112032456304043
:10130000852F0E94C016819FC0011124280F391F0C
:10131000CF010A96B9012DE43BE60E949708E091BF
:101320000B03F0910C03ED0DF11D40818D2D6AE052
:101330000E94C016919FF001112420911103309159
:101340001203245630408D2D0E94C016819FC0018B
:101350001124280F391FCF010A96B90121E935ED73
:101360000E949708DF91CF911F910F91FF90EF900E
:10137000DF9008950F931F9390910D038091FF02CA
:10138000981751F080910D036091FF020E942A0985
:1013900080910D038093FF0290910E038091FE02D5
:1013A000981770F400911A0310911B038BE490E0DE
:1013B00062E370E046E450E027E030E00E948810ED
:1013C00090910E038091FE02981721F080910E03F8
:1013D0008093FE021F910F910895AF92BF92CF921A
:1013E000DF92EF92FF920F931F93CF93DF93EC0165
:1013F0007B01B42E69016E5F7F4F02964CE150E095
:101400002CE130E086010E94881028E0B21699F4A1
:10141000CE01855F682F2DE030E0E20EF31E8CE3F5
:1014200070E0A7012FEF3FEF0E941E13CE018F5EE9
:10143000682F8DE292C09DE0B91641F52DE030E0B5
:10144000E20EF31E239685E4BE01A7012FEF3FEFC6
:1014500086010E941E1325968EE6BE01A7012FEF7E
:101460003FEF0E941E13259684E7BE01A7012FEFD0
:101470003FEF0E941E13259685E6BE01A7012FEFC0
:101480003FEF0E941E13259682E72AC036E0B3166E
:1014900049F58DE090E0E80EF91E239683E5BE0144
:1014A000A7012FEF3FEF86010E941E13259680E7CC
:1014B000BE01A7012FEF3FEF0E941E13259681E684
:1014C000BE01A7012FEF3FEF0E941E13259683E672
:1014D000BE01A7012FEF3FEF0E941E13259685E660
:1014E000BE013CC097E0B916E9F580910B039091DD
:1014F0000C032DE030E0E20EF31E9E01285F622F08
:101500005EE0B52EBC0E44E1A42EAC0E8F58924086
:1015100091F481E470E0A7012FEF3FEF86010E9474
:101520001E1382E46B2D70E0A7012FEF3FEF0E94A6
:101530001E1383E411C081E670E0A7012FEF3FEF97
:1015400086010E941E1382E66B2D70E0A7012FEF2B
:101550003FEF0E941E1383E66A2D70E0A7012FEF74
:101560003FEF0BC060968DE090E0E80EF91E8B2DEA
:10157000BE01A7012FEF3FEF86010E941E13DF91EE
:10158000CF911F910F91FF90EF90DF90CF90BF9080
:10159000AF900895DF92EF92FF920F931F93CF9336
:1015A000DF93D82E562F6E3198F1009111031091D0
:1015B000120304561040EE2427C06E968F2D90E043
:1015C000E0910B03F0910C03FD1441F4E80FF91FB7
:1015D0004081CE01B80121E935ED07C0E80FF91FC0
:1015E0004081CE01B8012DE43BE60E94ED09F39461
:1015F00081E0C831D80709F78AE0E80E8EE1E816E5
:1016000009F450C0025E1F4FFE2CCAE0D0E0D6CFD6
:10161000681709F447C0E0910B03F0910C03E60F43
:10162000F11D4081862F6AE00E94C0161EE1919F45
:10163000F0011124209111033091120324563040FF
:10164000852F0E94C016819FC0011124280F391FC9
:10165000CF010A96B9012DE43BE60E94ED09E09125
:101660000B03F0910C03ED0DF11D40818D2D6AE00F
:101670000E94C016919FF001112420911103309116
:101680001203245630408D2D0E94C016819FC00148
:101690001124280F391FCF010A96B90121E935ED30
:1016A0000E94ED09DF91CF911F910F91FF90EF9074
:1016B000DF9008950F931F9390910D038091FF0287
:1016C000981751F080910D036091FF020E94CA0AA1
:1016D00080910D038093FF0290910E038091FE0292
:1016E000981770F400911A0310911B038BE490E09B
:1016F00062E370E046E450E027E030E00E948810AA
:1017000090910E038091FE02981771F080E093E0B3
:101710006BE470E042E350E02FEF3FEF0E945E1376
:1017200080910E038093FE021F910F91089580E82F
:101730000E943908882309F445C020910B03309199
:101740000C0380910D03F901E80FF11D9081983091
:1017500081F480910E038823A9F180910E038150BA
:1017600080930E03E0910E03F0E0E050FD4F1082F5
:1017700029C0963021F40E94580882E008959730DD
:1017800081F42F58324019F481E792E002C08FE8CB
:1017900092E090930C0380930B038FEF8093FF02F2
:1017A00011C080910E038A3068F4E0910E03F0E0DE
:1017B000E050FD4F908380910E038F5F80930E0366
:1017C00081E0089584E00E943908882349F08091DF
:1017D0000D038A3028F080910D038A5080930D0309
:1017E00088E00E943908882349F080910D038D31EB
:1017F00028F480910D038F5F80930D0380E10E9498
:101800003908882349F080910D03843128F48091B0
:101810000D03865F80930D0380E20E9439088823C0
:1018200049F080910D03882329F080910D038150A8
:1018300080930D030E94D707982F87FF08C08091DF
:101840000D03882321F080910D03815009C01916E2
:101850005CF480910D038D3138F480910D038F5F1E
:1018600080930D0380E0089580E0089580E80E9451
:101870003908882309F452C020910B0330910C03DE
:1018800080910D03F901E80FF11D9081983089F4E2
:1018900080910E03882309F441C080910E0381508A
:1018A00080930E03E0910E03F0E0E050FD4F1082B4
:1018B00035C09D3021F40E94580881E0089596308B
:1018C00061F480910E038A3048F5E0910E03F0E058
:1018D000E050FD4F8FE580831CC0973081F42F5876
:1018E000324019F481E792E002C08FE892E09093D1
:1018F0000C0380930B038FEF8093FF020FC0809146
:101900000E038A3058F4E0910E03F0E0E050FD4FF2
:10191000908380910E038F5F80930E0384E00E947A
:101920003908882349F080910D038A3028F080918E
:101930000D038A5080930D0388E00E9439088823A4
:1019400049F080910D038D3128F480910D038F5F54
:1019500080930D0380E10E943908882349F080912B
:101960000D03843128F480910D03865F80930D036D
:1019700080E20E943908882349F080910D03882372
:1019800029F080910D03815080930D030E94D707A9
:10199000982F87FF08C080910D03882321F0809144
:1019A0000D03815009C019165CF480910D038D312F
:1019B00038F480910D038F5F80930D0380E00895CC
:1019C00080E0089593E89093B00091E09093B10087
:1019D0008093B3000895282F8093130386E390E04B
:1019E00080930040222389F480EF90E090931003CD
:1019F00080930F0380E491E090931203809311038E
:101A000088E490E08093004138C0213089F480E47C
:101A100091E09093100380930F0380EF90E09093F8
:101A200012038093110388EE90E08093004125C05B
:101A3000223089F480EF90E09093100380930F039D
:101A400080E491E0909312038093110388E890E082
:101A50008093004112C0233081F480E491E09093A0
:101A6000100380930F0380EF90E090931203809314
:101A7000110388E290E0809300418AE290E0809335
:101A8000004020E030E030930041209300418091FD
:101A90000F039091100301979093004180930041B0
:101AA0008BE290E08093004030930041209300410E
:101AB00080911103909112030197909300418093BC
:101AC000004108951F93682F873718F010E066E7EC
:101AD00011C0883010F468E00CC08D3310F010E0B5
:101AE00009C08F3110F011E005C0803110F012E014
:101AF00001C013E081EB90E080930040109300411F
:101B000070E0882777FD8095982F0E9434169B01FE
:101B1000AC0160E070E080EF94E40E949E150E94AA
:101B2000061670E002C0759567951A95E2F7609306
:101B300000411F9108950F931F93EAE2F0E0E093B4
:101B400000409093004180930041840F951F909333
:101B50000041809300418BE290E0809300407093BD
:101B6000004160930041620F731F709300416093C6
:101B700000418CE290E0809300404F5F5F4F2F5F09
:101B80003F4F42175307C8F4822F877090E0849F1D
:101B9000B001859F700D949F700D1124F3E0369570
:101BA0002795FA95E1F7822F90E0849FD001859FD9
:101BB000B00D949FB00D112418C0842F877090E051
:101BC000829FB001839F700D929F700D1124E3E0FE
:101BD00056954795EA95E1F7842F90E0829FD001D2
:101BE000839FB00D929FB00D1124562F577098010E
:101BF000452F0AC0F9012E5F3F4F85919491909334
:101C000000418093004141504423A1F7252F30E04B
:101C1000220F331F200F311FAB0183E056954795EC
:101C20008A95E1F74A0F5B1F43C0F90185919491B2
:101C30009093004180930041F901329685919491EF
:101C40009093004180930041F901349685919491DD
:101C50009093004180930041F901369685919491CB
:101C60009093004180930041F901389685919491B9
:101C70009093004180930041F9013A9685919491A7
:101C80009093004180930041F9013C968591949195
:101C90009093004180930041F9013E96205F3F4FB1
:101CA0008591949190930041809300414150504020
:101CB0004115510509F0B9CF1F910F910895EF9289
:101CC000FF920F931F93CF93DF93F9012AE230E045
:101CD0002093004090930041809300410197840F2E
:101CE000951F90930041809300418BE290E0809398
:101CF00000407093004160930041615070406E0F4E
:101D00007F1F70930041609300418CE290E08093CC
:101D100000404E175F07C8F48E2F877090E0849FB5
:101D2000D001859FB00D949FB00D112423E0F6954E
:101D3000E7952A95E1F78E2F90E0849FE001859F3B
:101D4000D00D949FD00D112418C0842F877090E07F
:101D50008E9FD0018F9FB00D9E9FB00D112493E0F8
:101D6000569547959A95E1F7842F90E08E9FE00174
:101D70008F9FD00D9E9FD00D11247A2F7770A801D0
:101D8000672F12C07A01FA018591949190930041D6
:101D9000809300414E5F5F4FF7018591949190933E
:101DA0000041809300416150662361F7272F30E0A6
:101DB000220F331F200F311FAD01A3E05695479529
:101DC000AA95E1F74C0F5D1F33C0F90185919491FD
:101DD0009093004180930041909300418093004193
:101DE000F90132968591949190930041809300413E
:101DF0009093004180930041F9013496859194912C
:101E00009093004180930041909300418093004162
:101E1000F9013696285F3F4F859194919093004148
:101E20008093004190930041809300414150504085
:101E30004115510509F0C9CFDF91CF911F910F9145
:101E4000FF90EF9008950F931F93EAE2F0E0E09384
:101E500000409093004180930041840F951F909320
:101E60000041809300418BE290E0809300407093AA
:101E7000004160930041620F731F709300416093B3
:101E800000418CE290E0809300404F5F5F4F2F5FF6
:101E90003F4F42175307C8F4822F877090E0849F0A
:101EA000B001859F700D949F700D1124F3E036955D
:101EB0002795FA95E1F7822F90E0849FD001859FC6
:101EC000B00D949FB00D112418C0842F877090E03E
:101ED000829FB001839F700D929F700D1124E3E0EB
:101EE00056954795EA95E1F7842F90E0829FD001BF
:101EF000839FB00D929FB00D1124362F3770F801DB
:101F0000232F07C0819191919093004180930041CC
:101F100021502223B9F7E32FF0E0EE0FFF1FE00F6F
:101F2000F11F9B0143E0369527954A95E1F72A0F6B
:101F30003B1F33C080819181909300418093004189
:101F400082819381909300418093004184819581A7
:101F50009093004180930041868197819093004146
:101F6000809300418085918590930041809300414A
:101F70008285938590930041809300418485958567
:101F8000909300418093004186859785909300410E
:101F9000809300417096215030402115310551F653
:101FA0001F910F9108950F931F93DF93CF93CDB798
:101FB000DEB728970FB6F894DEBF0FBECDBF2983DA
:101FC0003A834B835C836D837E838F83988769819B
:101FD0007A812B813C81ED81FE814F8158858AE297
:101FE00090E08093004070930041609300413093F3
:101FF0000041209300418BE290E080930040F093F9
:102000000041E093004150930041409300418CE235
:1020100090E0809300402F5F3F4F261B370B4F5FB0
:102020005F4F4E1B5F0B24173507C8F4842F877052
:1020300090E0829FB001839F700D929F700D1124DC
:1020400083E0569547958A95E1F7842F90E0829F2B
:10205000F001839FF00D929FF00D112418C0822F84
:10206000877090E0849FB001859F700D949F700DE4
:102070001124B3E036952795BA95E1F7822F90E0C9
:10208000849FF001859FF00D949FF00D1124862F01
:10209000877005C010930041009300418150882350
:1020A000C9F7CB01A3E096958795AA95E1F78E0F26
:1020B0009F1F21C0109300410093004110930041E5
:1020C00000930041109300410093004110930041A0
:1020D0000093004110930041009300411093004190
:1020E0000093004110930041009300411093004180
:1020F0000093004101970097E9F628960FB6F894EF
:10210000DEBF0FBECDBFCF91DF911F910F9108951C
:102110000F931F93EAE2F0E0E093004090930041B8
:1021200080930041840F951F90930041809300415C
:102130008BE290E0809300407093004160930041F7
:10214000620F731F70930041609300418CE290E036
:10215000809300404F5F5F4F2F5F3F4F4217530701
:10216000C8F4822F877090E0849FB001859F700D26
:10217000949F700D1124F3E036952795FA95E1F7B9
:10218000822F90E0849FF001859FF00D949FF00DC9
:10219000112418C0842F877090E0829FB001839F24
:1021A000700D929F700D1124E3E056954795EA95C6
:1021B000E1F7842F90E0829FF001839FF00D929FC2
:1021C000F00D1124862F877005C0109300410093F5
:1021D000004181508823C9F7CB0123E0969587956C
:1021E0002A95E1F78E0F9F1F21C0109300410093A5
:1021F000004110930041009300411093004100936F
:10220000004110930041009300411093004100935E
:10221000004110930041009300411093004100934E
:102220000041109300410093004101970097E9F6A7
:102230001F910F910895EF92FF920F931F93DF93D9
:10224000CF93CDB7DEB728970FB6F894DEBF0FBE99
:10225000CDBF29833A834B835C836D837E838F83D9
:10226000988729813A81AB81BC81ED80FE806F81A6
:1022700078858AE290E0809300403093004120937B
:102280000041B0930041A09300418BE290E0809325
:102290000040F0920041E092004170930041609351
:1022A00000418CE290E0809300400FC0F8018191E2
:1022B00091918F0190930041809300414F5F5F4F58
:1022C0006417750798F72F5F3F4FA217B30710F0F9
:1022D000A701F6CF28960FB6F894DEBF0FBECDBF8C
:1022E000CF91DF911F910F91FF90EF9008950F9381
:1022F0001F93DF93CF93CDB7DEB728970FB6F8942F
:10230000DEBF0FBECDBF10921503109214031092C2
:1023100017031092160320910F03309110032150E0
:102320003040809111039091120301971A82198213
:10233000422F3C832B831E821D8298878F830091BE
:102340001A0310911B0329813A815C816D817E8182
:1023500098850E94D30F28960FB6F894DEBF0FBE63
:10236000CDBFCF91DF911F910F91089586E08093AB
:10237000750080E8809374003F9A249A80ED97E07E
:102380000197F1F7479880E49CE90197F1F7479AA4
:1023900080EB94E028EC30E0F9013197F1F70197F8
:1023A000D9F788E290E08093004081E190E080934B
:1023B000004088E592E028EC30E0F9013197F1F730
:1023C0000197D9F741E050E08BEC90E0809300401A
:1023D0004093004180EC90E08093004088E096E2DA
:1023E000909300418093004120E130E081EC90E047
:1023F000809300402093004185EC90E08093004062
:102400008EE395E3909300418093004125EB30E00B
:1024100087EC90E0809300402093004186EF90E0AD
:10242000809300404093004180E090E09093004111
:102430008093004125E530E08AE390E080930040FE
:102440002093004181E00E94EB0C0E9477111092D2
:102450001503109214031092170310921603109292
:102460001B0310921A038FEF9FEF90931903809331
:10247000180389E290E08093004084EF91E028EC1B
:1024800030E0F9013197F1F70197D9F780E090E05A
:1024900025E330E0209300408093004180916A0062
:1024A000806280936A002C9A08954F925F926F9297
:1024B0007F928F929F92AF92BF92CF92DF92EF92D4
:1024C000FF920F931F93CF93DF93982F3B017A01D5
:1024D000209114033091150314E0C12ED12CC20EAB
:1024E000D31E60911603709117038A30B1F41092D5
:1024F0001503109214039B01285F3F4F309317037D
:102500002093160380911103909112032817390725
:1025100008F483C00E94771180C080528F3508F084
:102520007CC0EB01279685E0989FA0011124405DB7
:102530005F4F8BE290E08093004070930041609386
:102540000041D0930041C09300412901BAE28B2E93
:10255000912CACE2AA2EB12C25C080920040509262
:102560000041409200415092004140920041A092AF
:102570000040FA010491DB0111E00CC0812F80239F
:1025800011F4970101C09301309300412093004161
:102590001196110FCA17DB0788F74F5F5F4F08943A
:1025A000411C511CC414D504C0F68AE290E080930B
:1025B00000405092004140920041509200414092B0
:1025C00000418CE290E0809300409B0106C0F092B5
:1025D0000041E09200412F5F3F4FC217D307B8F789
:1025E00080911403909115030696909315038093A0
:1025F000140320910F03309110038217930768F0A2
:1026000010921503109214038091160390911703F2
:1026100008969093170380931603DF91CF911F9133
:102620000F91FF90EF90DF90CF90BF90AF909F9071
:102630008F907F906F905F904F9008950F931F93AE
:10264000709315036093140350931703409316037C
:10265000B901A8010E9455121F910F910895609130
:1026600018037091190340911A0350911B030E94A3
:1026700055120895EF92FF921F93CF93DF937C0141
:10268000EB0110E008C040911A0350911B03BE01FA
:102690000E9455121F5FF701E10FF11D8081882311
:1026A00091F7DF91CF911F91FF90EF900895609186
:1026B0001803709119030E943A130895EF92FF9244
:1026C0001F93CF93DF937C01E9017093150360930F
:1026D0001403509317034093160310E008C0409171
:1026E0001A0350911B03BE010E9455121F5FF70190
:1026F000E10FF11D8081882391F7DF91CF911F9128
:10270000FF90EF90089520911803309119030E94D3
:102710005E130895EF92FF920F931F93CF93DF9371
:10272000C0E0D0E000E8E02EF12C082F10E0C70157
:102730000C2E02C0959587950A94E2F78023912389
:10274000892B11F081E301C08EE20E942F132196A4
:10275000C830D10561F7DF91CF911F910F91FF90A4
:10276000EF9008951F93DF93CF93CDB7DEB72B97EC
:102770000FB6F894DEBF0FBECDBF482F562F172FD0
:10278000DE011196EDEAF2E08BE001900D928150AE
:10279000E1F7852F912F9C01D901842F11966AE0D2
:1027A0000E94C0168823D1F71C929E012F5F3F4FD5
:1027B000842F6AE00E94C016F901E90FF11D8081A3
:1027C0008E93842F0E94C016482F882389F7852F67
:1027D000912F2B960FB6F894DEBF0FBECDBFCF91D1
:1027E000DF911F9108958F929F92AF92BF92CF92E7
:1027F000DF92EF92FF920F931F93DF93CF93CDB7AA
:10280000DEB72B970FB6F894DEBF0FBECDBF7B01AE
:102810008C01942E852EDE011196EDEAF2E08BE01C
:1028200001900D928150E1F7892D982D9C0169014D
:10283000C801B7010894C11CD11C2AE030E040E077
:1028400050E00E94E016C901DA01BC01CD0161151A
:1028500071058105910571F7F60110825E010894FA
:10286000A11CB11CC801B7012AE030E040E050E0F3
:102870000E94E016F501E60FF71F8081F6018293B2
:102880006F01C801B7012AE030E040E050E00E944B
:10289000E016C901DA017C018D01E114F1040105A2
:1028A000110501F7892D982D2B960FB6F894DEBFF0
:1028B0000FBECDBFCF91DF911F910F91FF90EF9091
:1028C000DF90CF90BF90AF909F908F900895BF9270
:1028D000CF92DF92EF92FF920F931F93DF93CF93EC
:1028E000CDB7DEB72B970FB6F894DEBF0FBECDBFC6
:1028F0007C01462FB72EDE011196EDEAF2E08BE067
:1029000001900D928150E1F7842F9B2D9C0189014C
:10291000C7010F5F1F4F6AE070E00E94CC16CB0129
:1029200061157105B1F7F80110826E010894C11CA0
:10293000D11CC7016AE070E00E94CC16F601E80FD6
:10294000F91F8081F80182938F01C7016AE070E06E
:102950000E94CC167B016115710559F7842F9B2DC0
:102960002B960FB6F894DEBF0FBECDBFCF91DF918F
:102970001F910F91FF90EF90DF90CF90BF9008953F
:10298000DF93CF9300D00F92CDB7DEB7BE016F5F5C
:102990007F4F0E94B2130E9457130F900F900F9019
:1029A000CF91DF910895DF93CF93CDB7DEB72A970C
:1029B0000FB6F894DEBF0FBECDBFAE014F5F5F4FC5
:1029C0000E94F3130E9457132A960FB6F894DEBFA5
:1029D0000FBECDBFCF91DF910895DF93CF93CDB7D9
:1029E000DEB727970FB6F894DEBF0FBECDBFBE018E
:1029F0006F5F7F4F0E9467140E94571327960FB690
:102A0000F894DEBF0FBECDBFCF91DF910895CF9276
:102A1000DF92EF92FF920F931F93DF93CF93CDB787
:102A2000DEB727970FB6F894DEBF0FBECDBF8B0180
:102A30007A016901BE016F5F7F4F0E946714B80180
:102A4000A70196010E945E1327960FB6F894DEBF89
:102A50000FBECDBFCF91DF911F910F91FF90EF90EF
:102A6000DF90CF900895EF92FF920F931F93DF9323
:102A7000CF93CDB7DEB727970FB6F894DEBF0FBE62
:102A8000CDBF8B017A01BE016F5F7F4F0E9467143B
:102A9000B801A7010E94831327960FB6F894DEBFF2
:102AA0000FBECDBFCF91DF911F910F91FF90EF909F
:102AB00008950F931F93DF93CF93CDB7DEB727977A
:102AC0000FB6F894DEBF0FBECDBF8B01BE016F5FA6
:102AD0007F4F0E946714B8010E943A1327960FB6E1
:102AE000F894DEBF0FBECDBFCF91DF911F910F9144
:102AF0000895CF92DF92EF92FF920F931F93DF938F
:102B0000CF9300D00F92CDB7DEB78B017A01690168
:102B1000BE016F5F7F4F0E94B213B801A7019601FB
:102B20000E945E130F900F900F90CF91DF911F9135
:102B30000F91FF90EF90DF90CF9008950CD0E6C0FA
:102B4000DED040F0D5D030F021F45F3F19F0C7C09F
:102B5000511110C1CAC0EBD098F39923C9F3552382
:102B6000B1F3951B550BBB27AA2762177307840780
:102B700038F09F5F5F4F220F331F441FAA1FA9F336
:102B800033D00E2E3AF0E0E830D091505040E69528
:102B9000001CCAF729D0FE2F27D0660F771F881F89
:102BA000BB1F261737074807AB07B0E809F0BB0B78
:102BB000802DBF01FF2793585F4F2AF09E3F51059C
:102BC00068F08DC0D7C05F3FECF3983EDCF386958C
:102BD00077956795B795F7959F5FC9F7880F911D12
:102BE0009695879597F90895E1E0660F771F881FFE
:102BF000BB1F621773078407BA0720F0621B730BB1
:102C0000840BBA0BEE1F88F7E095089598D088F0F2
:102C10009F5790F0B92F9927B751A0F0D1F0660FC8
:102C2000771F881F991F1AF0BA95C9F712C0B130E3
:102C300081F09FD0B1E008959CC0672F782F88273E
:102C4000B85F39F0B93FCCF3869577956795B39522
:102C5000D9F73EF490958095709561957F4F8F4F91
:102C60009F4F0895E89409C097FB3EF49095809596
:102C7000709561957F4F8F4F9F4F9923A9F0F92F42
:102C800096E9BB279395F695879577956795B795C0
:102C9000F111F8CFFAF4BB0F11F460FF1BC06F5FA6
:102CA0007F4F8F4F9F4F16C0882311F096E911C0B8
:102CB000772321F09EE8872F762F05C0662371F0D9
:102CC00096E8862F70E060E02AF09A95660F771FED
:102CD000881FDAF7880F9695879597F9089597F9E1
:102CE0009F6780E870E060E008959FEF80EC0895B2
:102CF00000240A94161617061806090608950024DB
:102D00000A9412161306140605060895092E039454
:102D1000000C11F4882352F0BB0F40F4BF2B11F4C8
:102D200060FF04C06F5F7F4F8F4F9F4F089557FD27
:102D30009058440F551F59F05F3F71F04795880F29
:102D400097FB991F61F09F3F79F0879508951216C0
:102D500013061406551FF2CF4695F1DF08C016166C
:102D600017061806991FF1CF86957105610508941D
:102D70000895E894BB2766277727CB0197F9089534
:102D8000991B79E004C0991F961708F0961B881FBD
:102D90007A95C9F780950895AA1BBB1B51E107C01E
:102DA000AA1FBB1FA617B70710F0A61BB70B881FDB
:102DB000991F5A95A9F780959095BC01CD0108956A
:102DC000A1E21A2EAA1BBB1BFD010DC0AA1FBB1F2F
:102DD000EE1FFF1FA217B307E407F50720F0A21BA1
:102DE000B30BE40BF50B661F771F881F991F1A940E
:102DF00069F760957095809590959B01AC01BD0138
:102E0000CF010895FB01DC0101900D920020E1F754
:102E10000895FB01DC014150504048F001900D92B3
:102E20000020C9F701C01D9241505040E0F70895BD
:042E3000F894FFCF44
:102E34005F5F5F5F5F5F5F5F5F5F5F5F5F007C003F
:102E44005F5F5F5F5F5F5F5F5F5F005C005F0028E5
:102E540029002F00200048616E676D616E20636F4A
:102E64006D706C657465212000576F7264206775FE
:102E740065737365642120202020202000596F751C
:102E84002077696E2100596F75206C6F737421006F
:102E940054686520776F726420776173005072659F
:102EA40073732063656E74726520627574746F6EDB
:102EB40020746F20676F206261636B20746F206DD4
:102EC400656E7500456E746572206120776F72645B
:102ED40020746F2067756573732100576F72643AAD
:102EE4000047756573732074686520776F7264009A
:102EF400496E636F7272656374206C657474657275
:102F0400733A0056332E300057656C636F6D65203D
:102F1400746F204C612048616E676D616E210042C0
:102F240079204A6F7368756120477265676F72799B
:102F340000565320436F6D707574657200565320AC
:102F440048756D616E004C415F464F5254554E4179
:102F540048414E474D414E000000434F4D505F5392
:102F6400434900004B4C4155530000000000434FBF
:102F74004D505F535953000047414D494E4700009F
:102F840000004D494E45435241465400464F525469
:102F94004E49544500004441420000000000000036
:102FA4000951574552545955494F500741534446C6
:102FB40047484A4B4C08065A584356424E4D0D71E9
:102FC400776572747975696F700761736466676891
:102FD4006A6B6C08067A786376626E6D0D303132F6
:082FE40033343536373839006B
:00000001FF
